:100000000C942A000C94A70A0C94D40A0C94010BAB
:100010000C9447000C9447000C9447000C94470044
:100020000C9447000C9447000C9444070C94170759
:100030000C9447000C9447000C9447000C94470024
:100040000C94CE0F0C9447000C9447000C9447007E
:100050000C94470011241FBECFE5D8E0DEBFCDBF12
:1000600011E0A0E6B0E0E2EDFEE202C005900D92E4
:10007000A43AB107D9F711E0A4EAB1E001C01D929A
:10008000AE3BB107E1F70E94FA120C9467170C948B
:100090000000EF92FF920F931F937B018C0120E0F1
:1000A00030E040E05FE40E94F50388238CF0C80153
:1000B000B70120E030E040E05FE40E94C1010E940F
:1000C00055049B01AC01205030404040504806C0D0
:1000D000C801B7010E9455049B01AC01B901CA01D6
:1000E0001F910F91FF90EF900895A0E0B0E0EBE733
:1000F000F0E00C943017DC012B01FA019C91923056
:1001000008F439C1EB018881823008F433C194309E
:1001100069F4843009F02FC111969C91119789815F
:10012000981709F428C1A0E6B0E025C1843009F48D
:1001300021C18230A9F4923009F01DC19A01AD01AC
:1001400088E0EA010990AE01E90109929E0181501F
:10015000C1F7E201898111969C918923818308C1AD
:10016000923009F407C112962D903C901397EB0141
:100170008A819B811496AD90BD90CD90DC901797AD
:10018000EC80FD800E811F819101281B390BB90184
:1001900037FF04C066277727621B730B6032710537
:1001A0000CF061C0121613066CF537014801062EDB
:1001B00004C096948794779467940A94D2F721E0C8
:1001C00030E040E050E004C0220F331F441F551FB1
:1001D0006A95D2F721503040404050402E213F21B7
:1001E00040235123211531054105510521F021E01E
:1001F00030E040E050E079018A01E628F72808293C
:1002000019293CC0232BD1F1260E371E350146019A
:10021000062E04C096948794779467940A94D2F734
:1002200021E030E040E050E004C0220F331F441FC3
:10023000551F6A95D2F721503040404050402A2146
:100240003B214C215D21211531054105510521F04E
:1002500021E030E040E050E059016A01A628B728CB
:10026000C828D9280BC0821593052CF01C01AA249C
:10027000BB24650103C0EE24FF24870111969C91E5
:10028000D20111968C91981709F445C0992339F041
:10029000A80197012A193B094C095D0906C0A6016E
:1002A00095012E193F09400B510B57FD08C01182D3
:1002B0003382228224833583468357831DC081E0A5
:1002C00081833382228288279927DC01821B930B4A
:1002D000A40BB50B84839583A683B7830DC0220F2F
:1002E000331F441F551F24833583468357838281E0
:1002F000938101979383828324813581468157813D
:10030000DA01C9010197A109B1098F5F9F4FAF4F72
:10031000BF4328F30BC0918333822282EA0CFB1C7B
:100320000C1D1D1DE482F5820683178383E0808304
:10033000248135814681578157FF1AC0C901AA27F8
:1003400097FDA095BA2F81709070A070B0705695EF
:10035000479537952795822B932BA42BB52B848318
:100360009583A683B7838281938101969383828349
:10037000DF0101C0D201CD01CDB7DEB7E2E10C94BF
:100380004C17A0E2B0E0E7ECF1E00C943C17698375
:100390007A838B839C832D833E834F835887E9E048
:1003A000EE2EF12CEC0EFD1ECE010196B7010E943F
:1003B00046068E010F5E1F4FCE010596B8010E94C2
:1003C00046068A8991E089278A8BC701B801AE0168
:1003D000475E5F4F0E9475000E947105A096E6E09F
:1003E0000C945817A0E2B0E0E8EFF1E00C943C1751
:1003F00069837A838B839C832D833E834F835887C5
:10040000F9E0EF2EF12CEC0EFD1ECE010196B701A6
:100410000E9446068E010F5E1F4FCE010596B80161
:100420000E944606C701B801AE01475E5F4F0E94B9
:1004300075000E947105A096E6E00C945817A0E2A2
:10044000B0E0E5E2F2E00C94301769837A838B83A5
:100450009C832D833E834F835887CE010196BE0136
:10046000675F7F4F0E944606CE010596BE016F5E14
:100470007F4F0E9446069985923088F089898230A4
:10048000C8F0943019F4823051F404C0843029F457
:10049000923081F480E690E0C6C0923049F420E0CA
:1004A0009A858A89981321E02A87CE010996BBC0D4
:1004B000823049F420E09A858A89981321E02A8BBA
:1004C000CE014196B0C02D843E844F8458886D88FB
:1004D0007E888F88988CEE24FF248701AA24BB2471
:1004E000650140E050E060E070E0E0E0F0E0C10174
:1004F00081709070892BE9F0E60CF71C081D191D1E
:100500009A01AB012A0D3B1D4C1D5D1D80E090E062
:10051000A0E0B0E0E614F7040805190520F481E036
:1005200090E0A0E0B0E0BA01A901480F591F6A1F8E
:100530007B1FAA0CBB1CCC1CDD1C97FE08C081E0F5
:1005400090E0A0E0B0E0A82AB92ACA2ADB2A3196B6
:10055000E032F10549F0660C771C881C991C569412
:10056000479437942794C3CFFA85EA892B893C892D
:100570008B859C85280F391F2E5F3F4F17C0CA01FE
:1005800081709070892B61F016950795F794E79428
:1005900080E090E0A0E0B0E8E82AF92A0A2B1B2BC3
:1005A00076956795579547952F5F3F4F77FDE7CF36
:1005B0000CC0440F551F661F771F17FD4160EE0CDE
:1005C000FF1C001F111F21503040403090E05907A0
:1005D00090E0690790E4790760F32B8F3C8FDB0193
:1005E000CA018F779070A070B07080349105A1051A
:1005F000B10561F447FD0AC0E114F10401051105DC
:1006000029F0405C5F4F6F4F7F4F40781A8EFE1786
:1006100011F081E08A8F4D8F5E8F6F8F78A383E01A
:10062000898FCE0149960E947105A096E2E10C9453
:100630004C17A8E1B0E0EFE1F3E00C9438176983C0
:100640007A838B839C832D833E834F835887B9E0C5
:10065000EB2EF12CEC0EFD1ECE010196B7010E948F
:1006600046068E010F5E1F4FCE010596B8010E940F
:1006700046062985223008F47EC03989323010F4CC
:10068000B8017CC08A859A8989278A87243011F02D
:10069000223031F4231709F06EC060E670E06EC0BE
:1006A000343039F41D861E861F86188A1C861B86E8
:1006B00004C0323021F484E08987B7015FC02B8504
:1006C0003C858B899C89281B390B3C872B87ED84C3
:1006D000FE840F851889AD88BE88CF88D88CEA142F
:1006E000FB040C051D0540F4EE0CFF1C001F111F40
:1006F000215030403C872B8720E030E040E050E044
:1007000080E090E0A0E0B0E460E070E0EA14FB0478
:100710000C051D0540F0282B392B4A2B5B2BEA18C2
:10072000FB080C091D09B695A79597958795EE0CC2
:10073000FF1C001F111F6F5F7F4F6F31710531F775
:10074000DA01C9018F779070A070B0708034910584
:10075000A105B10561F427FD0AC0E114F10401050A
:10076000110529F0205C3F4F4F4F5F4F20782D87B8
:100770003E874F87588BBE01675F7F4FCB010E943A
:1007800071056896EAE00C945417A8E1B0E0EBEC30
:10079000F3E00C943C1769837A838B839C832D83CD
:1007A0003E834F83588789E0E82EF12CEC0EFD1E26
:1007B000CE010196B7010E9446068E010F5E1F4FC3
:1007C000CE010596B8010E9446068985823040F028
:1007D0008989823028F0C701B8010E94BE0601C095
:1007E0008FEF6896E6E00C945817A8E1B0E0EBEFC5
:1007F000F3E00C943C1769837A838B839C832D836D
:100800003E834F83588789E0E82EF12CEC0EFD1EC5
:10081000CE010196B7010E9446068E010F5E1F4F62
:10082000CE010596B8010E9446068985823040F0C7
:100830008989823028F0C701B8010E94BE0601C034
:100840008FEF6896E6E00C945817A8E1B0E0EBE271
:10085000F4E00C943C1769837A838B839C832D830B
:100860003E834F83588789E0E82EF12CEC0EFD1E65
:10087000CE010196B7010E9446068E010F5E1F4F02
:10088000CE010596B8010E9446068985823040F067
:100890008989823028F0C701B8010E94BE0601C0D4
:1008A00081E06896E6E00C945817ACE0B0E0EBE528
:1008B000F4E00C94401769837A838B839C83CE0188
:1008C0000196BE016B5F7F4F0E9446068D8182308C
:1008D00061F1823050F1843021F48E81882351F10E
:1008E0002EC02F81388537FD20C06E812F31310514
:1008F0001CF06623F9F023C08EE190E0821B930B7D
:1009000029853A854B855C8504C056954795379572
:1009100027958A95D2F76623B1F05095409530958A
:1009200021953F4F4F4F5F4F0EC020E030E040E039
:1009300050E009C02FEF3FEF4FEF5FE704C020E02A
:1009400030E040E050E8B901CA012C96E2E00C9496
:100950005C17A8E0B0E0EFEAF4E00C9438177B01F4
:100960008C01611571058105910519F482E0898377
:1009700060C083E089838EE1C82ED12CDC82CB82DB
:10098000ED82FE820F831887C801B7010E942205FD
:10099000FC013197F7FF3BC0222733272E1B3F0B6B
:1009A00057016801022E04C0D694C794B794A79447
:1009B0000A94D2F740E050E060E070E081E090E01F
:1009C000A0E0B0E004C0880F991FAA1FBB1F2A95A2
:1009D000D2F70197A109B1098E219F21A023B1234C
:1009E0000097A105B10521F041E050E060E070E022
:1009F0004A295B296C297D294D835E836F83788723
:100A00008EE190E08E1B9F0B9C838B8312C03097EE
:100A100081F00E2E04C0EE0CFF1C001F111F0A9463
:100A2000D2F7ED82FE820F831887CE1ADF0ADC82AE
:100A3000CB821A82CE0101960E9471052896EAE0C7
:100A40000C945417EF92FF920F931F937B018C012C
:100A500080E0E81680E0F80681E0080780E01807EB
:100A600088F48FEFE816F1040105110531F028F044
:100A700088E090E0A0E0B0E017C080E090E0A0E067
:100A8000B0E012C080E0E81680E0F80680E00807D9
:100A900081E0180728F088E190E0A0E0B0E004C011
:100AA00080E190E0A0E0B0E020E230E040E050E003
:100AB000281B390B4A0B5B0B04C016950795F7945E
:100AC000E7948A95D2F7F701E859FF4F8081281BF8
:100AD000310941095109C9011F910F91FF90EF9010
:100AE0000895DF92EF92FF920F931F93FC01E48031
:100AF000F58006811781D1808081823048F480E0C2
:100B000090E0A0E1B0E0E82AF92A0A2B1B2BA5C04F
:100B1000843009F49FC0823021F4EE24FF24870141
:100B200005C0E114F1040105110519F4E0E0F0E05D
:100B300096C0628173819FEF623879070CF05BC0C9
:100B400022E83FEF261B370B2A3131052CF020E03D
:100B500030E040E050E02AC0B801A701022E04C0F6
:100B600076956795579547950A94D2F781E090E07E
:100B7000A0E0B0E004C0880F991FAA1FBB1F2A95F0
:100B8000D2F70197A109B1098E219F21A023B1239A
:100B90000097A105B10521F081E090E0A0E0B0E070
:100BA0009A01AB01282B392B4A2B5B2BDA01C901A7
:100BB0008F779070A070B07080349105A105B10559
:100BC00039F427FF09C0205C3F4F4F4F5F4F04C0EF
:100BD000215C3F4F4F4F5F4FE0E0F0E02030A0E05E
:100BE0003A07A0E04A07A0E45A0710F0E1E0F0E07D
:100BF00079018A0127C06038710564F5FB01E1586D
:100C0000FF4FD801C7018F779070A070B07080340B
:100C10009105A105B10539F4E7FE0DC080E490E02F
:100C2000A0E0B0E004C08FE390E0A0E0B0E0E80E08
:100C3000F91E0A1F1B1F17FF05C016950795F7948D
:100C4000E794319687E016950795F794E7948A958F
:100C5000D1F705C0EE24FF248701EFEFF0E06E2FFF
:100C6000679566276795902F9F77D794DD24D79453
:100C70008E2F8695492F462B582F5D29B701CA0123
:100C80001F910F91FF90EF90DF900895FC01DB0121
:100C9000408151812281622F6F7770E0221F2227CD
:100CA000221F9381892F880F822B282F30E0991FD4
:100CB0009927991F11969C93119721153105A9F534
:100CC000411551056105710511F482E037C082E8D4
:100CD0009FEF13969C938E9312979A01AB0167E056
:100CE000220F331F441F551F6A95D1F783E08C9361
:100CF0000DC0220F331F441F551F12968D919C91DA
:100D00001397019713969C938E931297203080E04F
:100D1000380780E0480780E4580758F314962D936D
:100D20003D934D935C93179708952F3F310579F4C8
:100D3000411551056105710519F484E08C930895FE
:100D400064FF03C081E08C9312C01C9210C02F5727
:100D5000304013963C932E93129783E08C9387E058
:100D6000440F551F661F771F8A95D1F7706414963C
:100D70004D935D936D937C93179708951F93DC01BA
:100D8000FB019C91923008F447C08081823008F4C6
:100D900043C0943051F411961C91843099F58181AF
:100DA000682F70E0611B71093FC0843021F09230E0
:100DB00031F48230B9F18181882389F12DC01196F7
:100DC0001C9111978230F1F081811817D9F4129695
:100DD0002D913C911397828193818217930794F010
:100DE00028173907BCF014968D919D910D90BC91F8
:100DF000A02D2481358146815781281739074A075C
:100E00005B0718F4112341F00AC082179307A40767
:100E1000B50740F4112319F061E070E005C06FEFF1
:100E20007FEF02C060E070E0CB011F9108951F9238
:100E30000F920FB60F9211242F933F934F935F930E
:100E40006F937F938F939F93AF93BF93EF93FF9392
:100E5000DF93CF93CDB7DEB7E091B101F091B2014E
:100E60000995CF91DF91FF91EF91BF91AF919F9144
:100E70008F917F916F915F914F913F912F910F9043
:100E80000FBE0F901F9018951F920F920FB60F92E2
:100E900011242F933F934F935F936F937F938F937F
:100EA0009F93AF93BF93EF93FF93DF93CF93CDB710
:100EB000DEB7E091B301F091B4010995CF91DF91D4
:100EC000FF91EF91BF91AF919F918F917F916F9122
:100ED0005F914F913F912F910F900FBE0F901F90F8
:100EE0001895DF93CF93CDB7DEB7E3E5F0E010823E
:100EF000A3E5B0E0E3E5F0E080818F7B8C93A3E590
:100F0000B0E0E3E5F0E0808188608C93A3E5B0E099
:100F1000E3E5F0E080818C93CF91DF910895DF933A
:100F2000CF93CDB7DEB7A3E5B0E0E3E5F0E0808195
:100F3000887F8C93A3E5B0E0E3E5F0E080818460F6
:100F40008C93CF91DF910895DF93CF93CDB7DEB728
:100F5000A3E5B0E0E3E5F0E08081887F8C93CF915A
:100F6000DF910895DF93CF93CDB7DEB7E2E5F0E0F0
:100F70001082CF91DF910895DF93CF930F92CDB779
:100F8000DEB78983E2E5F0E0898180830F90CF911D
:100F9000DF910895DF93CF930F92CDB7DEB78983AA
:100FA000ECE5F0E0898180830F90CF91DF91089587
:100FB000DF93CF93CDB7DEB7AFE5B0E0EFE5F0E07C
:100FC000808180688C93A9E5B0E0E9E5F0E080815C
:100FD00081608C93CF91DF910895DF93CF93CDB74C
:100FE000DEB7A9E5B0E0E9E5F0E080818E7F8C9383
:100FF000CF91DF910895DF93CF93CDB7DEB7AFE503
:10100000B0E0EFE5F0E0808180688C93A9E5B0E086
:10101000E9E5F0E0808182608C93CF91DF910895C3
:10102000DF93CF93CDB7DEB7A9E5B0E0E9E5F0E017
:1010300080818D7F8C93CF91DF910895DF93CF9343
:10104000CDB7DEB780916E0190916F01CF91DF91A6
:101050000895DF93CF93CDB7DEB727970FB6F894F7
:10106000DEBF0FBECDBF6C837D838E839F838FEFEA
:1010700089836C817D818E819F810E944900DC0182
:10108000CB019B838A838A819B8127960FB6F89434
:10109000DEBF0FBECDBFCF91DF910895DF93CF9319
:1010A000CDB7DEB7A1E2B0E0E1E2F0E080818E7F73
:1010B0008C93A1E2B0E0E1E2F0E080818D7F8C933F
:1010C000E0E2F0E08CE08083A6E5B0E0E6E5F0E069
:1010D000808184608C93CF91DF910895DF93CF93CB
:1010E00000D0CDB7DEB78A8319828A818837A0F411
:1010F0008A81882389F0E2E2F0E08A81882F90E0FB
:10110000880F991F81608083A6E5B0E0E6E5F0E0F6
:10111000808184608C9302C087E0898389810F90ED
:101120000F90CF91DF910895DF93CF930F92CDB7BA
:10113000DEB71982A6E5B0E0E6E5F0E080818062E6
:101140008C93A6E5B0E0E6E5F0E0808180688C93C2
:10115000E6E5F0E080818823DCF7E1E2F0E08081E1
:10116000882F90E0887F90708830910511F081E0A1
:10117000898389810F90CF91DF910895DF93CF9379
:101180000F92CDB7DEB71982A6E5B0E0E6E5F0E054
:10119000808180628C93A6E5B0E0E6E5F0E0808196
:1011A00080688C93E6E5F0E080818823DCF7E1E25B
:1011B000F0E08081882F90E0887F907080319105E9
:1011C00011F082E0898389810F90CF91DF9108959A
:1011D000DF93CF9300D0CDB7DEB78A831982E3E2E5
:1011E000F0E08A81880F8083E6E5F0E084E8808380
:1011F000E6E5F0E080818823DCF7E1E2F0E0808141
:10120000882F90E0887F90708831910511F083E0FD
:10121000898389810F900F90CF91DF910895DF939B
:10122000CF9300D0CDB7DEB78A831982E3E2F0E036
:101230008A81880F8083A3E2B0E0E3E2F0E080815E
:1012400081608C93E6E5F0E084E88083E6E5F0E0F9
:1012500080818823DCF7E1E2F0E08081882F90E054
:10126000887F90708034910511F084E089838981B2
:101270000F900F90CF91DF910895DF93CF9300D01F
:10128000CDB7DEB78A831982E3E2F0E08A818083FA
:10129000A6E5B0E0E6E5F0E0808180688C93E6E5C5
:1012A000F0E080818823DCF7E1E2F0E08081882FA4
:1012B00090E0887F90708832910511F085E08983F5
:1012C00089810F900F90CF91DF910895DF93CF9395
:1012D00000D00F92CDB7DEB79B838A8319828A81B3
:1012E0009B81009701F1A6E5B0E0E6E5F0E08081A2
:1012F00080648C93E6E5F0E080818823DCF7E1E20E
:10130000F0E08081882F90E0887F90708035910593
:1013100019F086E0898309C0E3E2F0E08081EA8188
:10132000FB81808302C088E0898389810F900F90C0
:101330000F90CF91DF910895DF93CF93CDB7DEB7B4
:10134000A6E5B0E0E6E5F0E0808180618C93A6E55B
:10135000B0E0E6E5F0E0808180688C93CF91DF918A
:101360000895DF93CF93CDB7DEB763970FB6F894A8
:10137000DEBF0FBECDBF9A8B898B6B8B188A0E9404
:101380009408882311F081E0888B89899A89892FB4
:101390009927877080658F878F850E94E80888234A
:1013A00011F083E0888B89890E943D09882311F020
:1013B00083E0888B8B890E943D09882311F085E0AA
:1013C000888B0E949C0980E090E0A0E2B1E48B87CA
:1013D0009C87AD87BE876B857C858D859E8520E04B
:1013E00030E04AE755E40E941F02DC01CB018F8305
:1013F0009887A987BA876F81788589859A8520E043
:1014000030E040E85FE30E94250488232CF481E06B
:1014100090E09E838D833FC06F81788589859A8512
:1014200020E03FEF4FE757E40E94C50318164CF544
:101430006B857C858D859E8520E030E040E251E41F
:101440000E941F02DC01CB01BC01CD010E944900BA
:10145000DC01CB019E838D830FC080E991E09C83EA
:101460008B838B819C810197F1F79C838B838D818A
:101470009E8101979E838D838D819E81009769F760
:1014800014C06F81788589859A850E944900DC01A6
:10149000CB019E838D838D819E819A8389838981EF
:1014A0009A810197F1F79A838983888963960FB6A9
:1014B000F894DEBF0FBECDBFCF91DF910895DF93CB
:1014C000CF9300D000D000D0CDB7DEB79C838B8304
:1014D0007E836D831A820E949408882311F081E034
:1014E0008A838B819C81892F992787708065898366
:1014F00089810E94E808882311F083E08A838B8128
:101500000E943D09882311F083E08A830E94BE086F
:10151000882311F082E08A8389810E940F09882341
:1015200011F084E08A838D819E810E946609882360
:1015300011F085E08A830E949C098A8126960FB665
:10154000F894DEBF0FBECDBFCF91DF9108951F92FB
:101550000F920FB60F9211242F933F934F935F93E7
:101560006F937F938F939F93AF93BF93EF93FF936B
:10157000DF93CF93CDB7DEB7E091B901F091BA0117
:101580000995CF91DF91FF91EF91BF91AF919F911D
:101590008F917F916F915F914F913F912F910F901C
:1015A0000FBE0F901F9018951F920F920FB60F92BB
:1015B00011242F933F934F935F936F937F938F9358
:1015C0009F93AF93BF93EF93FF93DF93CF93CDB7E9
:1015D000DEB7E091B701F091B8010995CF91DF91A5
:1015E000FF91EF91BF91AF919F918F917F916F91FB
:1015F0005F914F913F912F910F900FBE0F901F90D1
:1016000018951F920F920FB60F9211242F933F93AC
:101610004F935F936F937F938F939F93AF93BF93FA
:10162000EF93FF93DF93CF93CDB7DEB7E091B50192
:10163000F091B6010995CF91DF91FF91EF91BF91A4
:10164000AF919F918F917F916F915F914F913F915A
:101650002F910F900FBE0F901F901895DF93CF938F
:1016600000D000D0CDB7DEB789836A83AFE5B0E0A4
:10167000EFE5F0E0808180688C938981282F30E04D
:101680003C832B838B819C8181309105A1F02B8140
:101690003C8122303105D1F08B819C81009701F58E
:1016A0008A810E94770BABE5B0E0EBE5F0E080814A
:1016B00080648C9315C08A810E94DE0BABE5B0E09C
:1016C000EBE5F0E0808180688C930AC08A810E94FB
:1016D000450CABE5B0E0EBE5F0E0808180628C93F7
:1016E0000F900F900F900F90CF91DF910895DF939F
:1016F000CF9300D00F92CDB7DEB789838981282F91
:1017000030E03B832A838A819B818130910521F1DE
:101710002A813B81223031052CF48A819B810097FC
:1017200061F046C02A813B812230310521F18A8156
:101730009B818330910571F13BC0A5E5B0E0E5E503
:10174000F0E080818E7F8C93A5E5B0E0E5E5F0E0E8
:10175000808182608C932CC0A5E5B0E0E5E5F0E0E7
:10176000808181608C93A5E5B0E0E5E5F0E08081C3
:1017700082608C931DC0A5E5B0E0E5E5F0E08081D6
:101780008E7F8C93A5E5B0E0E5E5F0E080818D7F6C
:101790008C930EC0A5E5B0E0E5E5F0E080818160C6
:1017A0008C93A5E5B0E0E5E5F0E080818D7F8C933A
:1017B0000F900F900F90CF91DF910895DF93CF930B
:1017C00000D00F92CDB7DEB789838981282F30E012
:1017D0003B832A838A819B818130910521F12A8173
:1017E0003B81223031052CF48A819B81009761F086
:1017F00046C02A813B812230310521F18A819B81BB
:101800008330910571F13BC0A5E5B0E0E5E5F0E07E
:1018100080818B7F8C93A5E5B0E0E5E5F0E08081E9
:1018200088608C932CC0A5E5B0E0E5E5F0E0808110
:1018300084608C93A5E5B0E0E5E5F0E08081886008
:101840008C931DC0A5E5B0E0E5E5F0E080818B7FDD
:101850008C93A5E5B0E0E5E5F0E08081877F8C938F
:101860000EC0A5E5B0E0E5E5F0E0808184608C93F2
:10187000A5E5B0E0E5E5F0E08081877F8C930F90EF
:101880000F900F90CF91DF910895DF93CF9300D009
:101890000F92CDB7DEB789838981282F30E03B8353
:1018A0002A838A819B81009731F02A813B812130F4
:1018B000310549F00FC0A4E5B0E0E4E5F0E0808137
:1018C0008F7B8C9307C0A4E5B0E0E4E5F0E0808175
:1018D00080648C930F900F900F90CF91DF910895BB
:1018E000DF93CF9300D0CDB7DEB789836A83898138
:1018F000843068F48981882F90E0880F991FFC015B
:10190000EE58FE4F0190F081E02D8A8180830F9088
:101910000F90CF91DF910895DF93CF9300D0CDB793
:10192000DEB789836A838981843068F48981882F4E
:1019300090E0880F991FFC01E658FE4F0190F0815E
:10194000E02D8A8180830F900F90CF91DF910895D1
:10195000DF93CF9300D0CDB7DEB78A838A818430FE
:1019600068F48A81882F90E0880F991FFC01EE5758
:10197000FE4F0190F081E02D8081898389810F9055
:101980000F90CF91DF910895DF93CF9300D0CDB723
:10199000DEB789836A838981803208F062C08A81D8
:1019A000882379F58981869586958695882F90E09C
:1019B000880F991FFC01EE58FE4FA081B1818981EB
:1019C000869586958695882F90E0880F991FFC0153
:1019D000EE58FE4F0190F081E02D8081482F8981E3
:1019E000882F90E09C012770307081E090E0022EFB
:1019F00002C0880F991F0A94E2F7809584238C9384
:101A000030C08A81813069F5898186958695869571
:101A1000882F90E0880F991FFC01EE58FE4FA0819F
:101A2000B1818981869586958695882F90E0880F6B
:101A3000991FFC01EE58FE4F0190F081E02D80814E
:101A4000482F8981882F90E09C012770307081E0B9
:101A500090E0022E02C0880F991F0A94E2F7842BAF
:101A60008C930F900F90CF91DF910895DF93CF93D8
:101A700000D0CDB7DEB789836A838981803208F0D0
:101A800093C08A81882379F5898186958695869584
:101A9000882F90E0880F991FFC01E658FE4FA08127
:101AA000B1818981869586958695882F90E0880FEB
:101AB000991FFC01E658FE4F0190F081E02D8081D6
:101AC000482F8981882F90E09C012770307081E039
:101AD00090E0022E02C0880F991F0A94E2F78095C9
:101AE00084238C9361C08A81813071F589818695C8
:101AF00086958695882F90E0880F991FFC01E658FF
:101B0000FE4FA081B1818981869586958695882F23
:101B100090E0880F991FFC01E658FE4F0190F0817C
:101B2000E02D8081482F8981882F90E09C012770CB
:101B3000307081E090E0022E02C0880F991F0A9455
:101B4000E2F7842B8C9330C08A81823069F58981D9
:101B5000869586958695882F90E0880F991FFC01C1
:101B6000E658FE4FA081B18189818695869586953C
:101B7000882F90E0880F991FFC01E658FE4F0190D6
:101B8000F081E02D8081482F8981882F90E09C0191
:101B90002770307081E090E0022E02C0880F991FFC
:101BA0000A94E2F784278C930F900F90CF91DF91E6
:101BB0000895DF93CF9300D0CDB7DEB78A83198223
:101BC0008A818032F8F48A81869586958695882F59
:101BD00090E0880F991FFC01EE57FE4F0190F081B5
:101BE000E02D8081282F30E08A81882F90E0877057
:101BF0009070A90102C0559547958A95E2F7CA01F0
:101C00008170898389810F900F90CF91DF91089522
:101C1000DF93CF9300D000D00F92CDB7DEB79B8378
:101C20008A836C834D8319821982A3C08981282FEE
:101C300030E08A819B81FC01E20FF31F80818032BA
:101C400008F094C08C81882309F047C08981282F2F
:101C500030E08A819B81FC01E20FF31F8081869531
:101C600086958695882F90E0880F991FFC01EE5885
:101C7000FE4FA081B1818981282F30E08A819B812C
:101C8000FC01E20FF31F8081869586958695882F4B
:101C900090E0880F991FFC01EE58FE4F0190F081F3
:101CA000E02D8081482F8981282F30E08A819B8117
:101CB000FC01E20FF31F8081882F90E09C012770C8
:101CC000307081E090E0022E02C0880F991F0A94C4
:101CD000E2F7809584238C9349C08C81813009F090
:101CE00045C08981282F30E08A819B81FC01E20F69
:101CF000F31F8081869586958695882F90E0880FC2
:101D0000991FFC01EE58FE4FA081B1818981282FD7
:101D100030E08A819B81FC01E20FF31F8081869570
:101D200086958695882F90E0880F991FFC01EE58C4
:101D3000FE4F0190F081E02D8081482F8981282F6E
:101D400030E08A819B81FC01E20FF31F8081882FA4
:101D500090E09C012770307081E090E0022E02C07C
:101D6000880F991F0A94E2F7842B8C9389818F5FE7
:101D7000898399818D81981708F458CF0F900F901F
:101D80000F900F900F90CF91DF910895DF93CF9335
:101D900000D000D00F92CDB7DEB79B838A836C83CF
:101DA0004D8319821982EDC08981282F30E08A8104
:101DB0009B81FC01E20FF31F8081803208F0DEC0BE
:101DC0008C81882309F047C08981282F30E08A81DF
:101DD0009B81FC01E20FF31F808186958695869595
:101DE000882F90E0880F991FFC01E658FE4FA081D4
:101DF000B1818981282F30E08A819B81FC01E20F2B
:101E0000F31F8081869586958695882F90E0880FB0
:101E1000991FFC01E658FE4F0190F081E02D808172
:101E2000482F8981282F30E08A819B81FC01E20FB5
:101E3000F31F8081882F90E09C012770307081E033
:101E400090E0022E02C0880F991F0A94E2F7809555
:101E500084238C9393C08C81813009F046C08981A2
:101E6000282F30E08A819B81FC01E20FF31F8081E3
:101E7000869586958695882F90E0880F991FFC019E
:101E8000E658FE4FA081B1818981282F30E08A81F8
:101E90009B81FC01E20FF31F8081869586958695D4
:101EA000882F90E0880F991FFC01E658FE4F0190A3
:101EB000F081E02D8081482F8981282F30E08A81B0
:101EC0009B81FC01E20FF31F8081882F90E09C0131
:101ED0002770307081E090E0022E02C0880F991FB9
:101EE0000A94E2F7842B8C9349C08C81823009F0EC
:101EF00045C08981282F30E08A819B81FC01E20F57
:101F0000F31F8081869586958695882F90E0880FAF
:101F1000991FFC01E658FE4FA081B1818981282FCD
:101F200030E08A819B81FC01E20FF31F808186955E
:101F300086958695882F90E0880F991FFC01E658BA
:101F4000FE4F0190F081E02D8081482F8981282F5C
:101F500030E08A819B81FC01E20FF31F8081882F92
:101F600090E09C012770307081E090E0022E02C06A
:101F7000880F991F0A94E2F784278C9389818F5FD9
:101F8000898399818D81981708F40ECF0F900F9057
:101F90000F900F900F90CF91DF9108951F920F92A5
:101FA0000FB60F9211242F933F934F935F936F932C
:101FB0007F938F939F93AF93BF93EF93FF93DF93A1
:101FC000CF93CDB7DEB7E091BB01F091BC0109958D
:101FD000CF91DF91FF91EF91BF91AF919F918F9141
:101FE0007F916F915F914F913F912F910F900FBE15
:101FF0000F901F901895DF93CF93CDB7DEB7A7E270
:10200000B0E0E7E2F0E0808180648C93A7E2B0E08A
:10201000E7E2F0E0808180688C93A7E2B0E0E7E23D
:10202000F0E080818F7D8C93A6E2B0E0E6E2F0E004
:10203000808180688C93A6E2B0E0E6E2F0E08081E7
:1020400086608C93CF91DF910895DF93CF9300D07A
:102050000F92CDB7DEB78B831A821982A7E2B0E068
:10206000E7E2F0E08081807E8C93A7E2B0E0E7E2D7
:10207000F0E090818B81892B8C93A6E2B0E0E6E2C0
:10208000F0E0808180648C93E6E2F0E080818295CC
:10209000869586958370882F90E081709070882354
:1020A00099F7E4E2F0E08081882F90E09A838983B9
:1020B000E5E2F0E08081882F90E0982F88279C014E
:1020C00089819A81822B932B9A83898389819A8132
:1020D0000F900F900F90CF91DF910895DF93CF93E2
:1020E000CDB7DEB7A6E2B0E0E6E2F0E0808180683E
:1020F0008C93CF91DF910895DF93CF93CDB7DEB767
:10210000A6E2B0E0E6E2F0E080818F778C93CF9199
:10211000DF910895DF93CF93CDB7DEB7AFE5B0E0A1
:10212000EFE5F0E0808180688C93A6E2B0E0E6E223
:10213000F0E0808188608C93CF91DF910895DF93E8
:10214000CF93CDB7DEB7A6E2B0E0E6E2F0E0808163
:10215000877F8C93CF91DF910895DF93CF93CDB795
:10216000DEB7A6E2B0E0E6E2F0E0808180618C9329
:10217000CF91DF910895DF93CF9300D000D0CDB7FA
:10218000DEB780E090E0A0E2B0E489839A83AB837D
:10219000BC8389819A81AB81BC81BC01CD010F9048
:1021A0000F900F900F90CF91DF910895DF93CF9311
:1021B000CDB7DEB70E94FB0F0E946E10CF91DF916A
:1021C0000895DF93CF930F92CDB7DEB789838981CE
:1021D0000E9425100F90CF91DF910895DF93CF9348
:1021E00000D0CDB7DEB78A838A81833008F03EC045
:1021F0008A8181508A838A81282F30E0C901880F23
:10220000991F880F991F880F991F821B930B898331
:1022100017C08981882F90E0FC01E657FE4F80812E
:1022200061E00E94C40C8981882F90E0FC01E65790
:10223000FE4F808160E00E94360D89818F5F898327
:102240008981482F50E08A81882F90E09C012F5F80
:102250003F4FC901880F991F880F991F880F991F39
:10226000821B930B84179507A4F603C083E0809329
:10227000BD010F900F90CF91DF910895DF93CF9321
:1022800000D000D0CDB7DEB78B836C838C818330D8
:10229000E0F58C8181508C838C81282F30E0C9013E
:1022A000880F991F880F991F880F991F821B930B06
:1022B0008A83198226C08A81882F90E0FC01E65724
:1022C000FE4F40818B81882F90E0FC01E856FE4F45
:1022D0008081282F30E08981882F90E0B90102C0E9
:1022E000759567958A95E2F7CB01982F9170842FA9
:1022F000692F0E94360D8A818F5F8A8389818F5F63
:10230000898389818730B8F203C083E08093BD015F
:102310000F900F900F900F90CF91DF910895DF9362
:10232000CF93CDB7DEB781E060E00E94C40C81E0BE
:1023300061E00E94360D82E060E00E94C40C82E001
:1023400061E00E94360D83E060E00E94C40C83E0EF
:1023500061E00E94360DCF91DF910895DF93CF9316
:10236000CDB7DEB781E00E94D90DCF91DF910895FE
:10237000DF93CF93CDB7DEB782E00E94D90DCF9126
:10238000DF910895DF93CF93CDB7DEB783E00E944E
:10239000D90DCF91DF910895DF93CF93CDB7DEB7FD
:1023A00083E161E00E94C40C83E160E00E94360D8D
:1023B00084E161E00E94C40C84E160E00E94360D7B
:1023C00085E161E00E94C40C85E160E00E94360D69
:1023D00084E061E00E94C40C84E060E00E94360D5D
:1023E000CF91DF910895DF93CF930F92CDB7DEB7F2
:1023F000898383E169810E94360D0F90CF91DF912F
:102400000895DF93CF930F92CDB7DEB7898384E130
:1024100069810E94360D0F90CF91DF910895DF936F
:10242000CF930F92CDB7DEB7898385E169810E9492
:10243000360D0F90CF91DF910895DF93CF930F92D8
:10244000CDB7DEB7898384E069810E94360D0F9095
:10245000CF91DF910895DF93CF93CDB7DEB70E9480
:102460007107CF91DF910895DF93CF93CDB7DEB79A
:102470000E948F07CF91DF910895DF93CF93CDB75F
:10248000DEB70E94A407CF91DF910895DF93CF9329
:10249000CDB7DEB70E94B207CF91DF910895DF93E9
:1024A000CF930F92CDB7DEB7898389810E94CA0787
:1024B0000F90CF91DF910895DF93CF93CDB7DEB723
:1024C0000E94FB07CF91DF910895DF93CF9300D057
:1024D000CDB7DEB79A83898389819A819093B401BD
:1024E0008093B3010F900F90CF91DF910895DF9308
:1024F000CF9300D0CDB7DEB789836A838AE160E0ED
:102500000E94C40C8AE161E00E94360D89816A81D3
:102510000E942E0B0F900F90CF91DF910895DF93C3
:10252000CF9300D0CDB7DEB79A83898389819A8112
:102530009093BA018093B9010F900F90CF91DF91E2
:102540000895DF93CF9300D0CDB7DEB79A83898308
:1025500089819A819093B8018093B7010F900F9071
:10256000CF91DF910895DF93CF9300D0CDB7DEB741
:102570009A83898389819A819093B6018093B5016A
:102580000F900F90CF91DF910895DF93CF93CDB748
:10259000DEB70E944E08CF91DF910895DF93CF936D
:1025A00000D00F92CDB7DEB79A8389836B83898180
:1025B0009A816B810E94B1090F900F900F90CF917B
:1025C000DF910895DF93CF9300D000D0CDB7DEB771
:1025D0009A8389837C836B8389819A812B813C8157
:1025E000B9010E945F0A0F900F900F900F90CF914A
:1025F000DF9108950F931F93DF93CF93CDB7DEB78D
:10260000E2970FB6F894DEBF0FBECDBF0E94D61082
:102610000E942B120E94C5120E94CC110E948F11A1
:1026200082E08987188681E0888706C088850E94B5
:10263000EE1088858F5F8887988589858917B0F720
:102640000E945C1289EF0E944F128DEA96E10E946F
:10265000651286E08F831E821A821B821C821D8275
:102660008CE38AAB2AA980E090E0622F0E94CE1210
:102670008F8161E00E943E118E8162E00E943E11D6
:102680008091B001882309F03BC180E00E941D12B7
:1026900080E00E94E110CC01A0E0B0E0BC01CD01DF
:1026A0000E94A904DC01CB01BC01CD0120E030E097
:1026B00040E250E40E941F02DC01CB01BC01CD01CD
:1026C00020E030E040E251E40E941903DC01CB013C
:1026D000BC01CD010E945504DC01CB018A839B83A0
:1026E000AC83BD8380E00E94F31180E00E94011260
:1026F00080E00E940F121092AB011092AA0110927A
:10270000AC010E94AE11882309F073C08091AF0123
:10271000882351F481E08093AF010E9434120E941B
:10272000AE118823E1F353C08E81882331F585E013
:102730008E838F81882F90E09C01220F331FC90167
:10274000880F991F880F991F820F931F982F8E81D2
:10275000890F8AAB2AA980E090E0622F0E94CE12F6
:102760000E94AE118823E1F39E012E5C3F4F80E072
:1027700090E0B9010E94E2122AC08E81853039F5BD
:102780008F81873021F11E828F818F5F8F838F81B0
:10279000882F90E09C01220F331FC901880F991FD9
:1027A000880F991F820F931F8AAB2AA980E090E0BF
:1027B000622F0E94CE120E94AE118823E1F39E0187
:1027C0002E5C3F4F80E090E0B9010E94E2128AA99E
:1027D0009AE0692F0E94E7168F838AA99AE0692FF1
:1027E0000E94E716892F8E831092A7011092A601EE
:1027F00087C00E94B811882309F082C08091AF0180
:10280000882351F481E08093AF010E9434120E942A
:10281000B8118823E1F356C08E81853029F58F8168
:10282000833011F11E828F81882F90E09C01220F4E
:10283000331FC901880F991F880F991F820F931F9B
:102840008AAB2AA980E090E0622F0E94CE120E94FB
:10285000B8118823E1F39E012E5C3F4F80E090E0A9
:10286000B9010E94E2122EC08E81882359F58F8112
:10287000833041F185E08E838F8181508F838F81FA
:10288000882F90E09C01220F331FC901880F991FE8
:10289000880F991F820F931F982F8E81890F8AAB03
:1028A0002AA980E090E0622F0E94CE120E94B81107
:1028B0008823E1F39E012E5C3F4F80E090E0B90158
:1028C0000E94E2128AA99AE0692F0E94E7168F837C
:1028D0008F81882F90E09C01220F331FC901880F40
:1028E000991F880F991F820F931F909581959F4F75
:1028F000982F8AA9890F8E831092A7011092A601A2
:102900000E94C2118823F1F48091B0018F5F8093FF
:10291000B0018091B001823019F41092B0010EC064
:102920008091B001813051F40E9446120E9434120D
:102930001092AF011092A7011092A6010E94C2113D
:102940008823E1F38091A401893109F088C0809146
:10295000A501082F10E080E00E94E110CC01A0E06A
:10296000B0E0BC01CD010E94A904DC01CB01BC0197
:10297000CD0120E030E040E250E40E941F02DC0183
:10298000CB01BC01CD0120E030E040E251E40E94E7
:102990001903DC01CB01BC01CD010E945504AB0140
:1029A000BC019801220F331F220F331FCE01019665
:1029B000820F931FFC013996408351836283738396
:1029C0008091A5018F5F8093A5018091A5018A3038
:1029D00009F043C08A859B85AC85BD858A839B832E
:1029E000AC83BD8381E0898321C08981882F90E0F9
:1029F0009C01220F331F220F331FCE010196820F3D
:102A0000931FFC01399620813181428153818A8153
:102A10009B81AC81BD81820F931FA41FB51F8A8348
:102A20009B83AC83BD8389818F5F898389818A3051
:102A3000E0F28A819B81AC81BD812AE030E040E0F8
:102A400050E0BC01CD010E94F316DA01C9018A836E
:102A50009B83AC83BD831092A5011092A401809149
:102A6000A6019091A70124E0823E920769F410929A
:102A7000AF0181E08093B0011092A7011092A601EE
:102A80000E9446120E9434128091A8018D3791F560
:102A90008091AF01813009F58091A901882371F4FB
:102AA0008F8161E00E943E118E8162E00E943E11A2
:102AB0008091A9018F5F8093A9011AC08091A9011B
:102AC0008130B1F48AE061E00E943E118AE062E068
:102AD0000E943E111092A9010BC08091AB01813080
:102AE00039F48091B001813019F482E00E94F31131
:102AF0001092A8018091AA01813039F48091B0012F
:102B0000813019F481E00E94F3118091AD01909120
:102B1000AE012AEE8036920731F41092B001109285
:102B2000AE011092AD018091B0018823E9F480914B
:102B3000AF018823C9F48AA99AE0692F0E94E71699
:102B40008F838AA99AE0692F0E94E716892F8E83C6
:102B50008F8161E00E943E118E8162E00E943E11F1
:102B60000E9446120E943D128091B001813009F00E
:102B700087CD81E00E941D128A819B81AC81BD813D
:102B80002AE030E040E050E0BC01CD010E94F316A5
:102B9000DA01C9018F838A819B81AC81BD812AE0E2
:102BA00030E040E050E0BC01CD010E94F316DC01B2
:102BB000CB018E838A819B81AC81BD818436910556
:102BC000A105B10524F089E08F8389E08E838F8190
:102BD00061E00E943E118E8162E00E943E118AA94E
:102BE000882F90E005969C01442737FD4095542F8F
:102BF0008A819B81AC81BD8182179307A407B507A9
:102C000034F58AA9882F90E005979C01442737FD69
:102C10004095542F8A819B81AC81BD81281739074B
:102C20004A075B07A4F48091AA01882381F480916C
:102C3000AB01882361F48091AC01882341F481E0E9
:102C40008093AC011092AE011092AD0119CD8AA90A
:102C5000882F90E005969C01442737FD4095542F1E
:102C60008A819B81AC81BD81281739074A075B07A0
:102C700021F48091AB018130B1F08091AA018130C3
:102C800039F58AA9882F90E005979C01442737FDE4
:102C90004095542F8A819B81AC81BD8128173907CB
:102CA0004A075B07A9F480E00E94F31180E00E94CC
:102CB000011280E00E940F121092AB011092AA0143
:102CC00081E08093AC011092AE011092AD01D8CC9E
:102CD0008AA9882F90E005979C01442737FD4095ED
:102CE000542F8A819B81AC81BD8182179307A407F1
:102CF000B50784F480E00E94011281E00E940F1267
:102D000081E08093AB011092AA011092AE01109263
:102D1000AD01B6CC8AA9882F90E005969C01442786
:102D200037FD4095542F8A819B81AC81BD81281746
:102D300039074A075B070CF0A3CC81E00E9401121F
:102D400080E00E940F1281E08093AA011092AB01F3
:102D50001092AE011092AD0193CCDF93CF93CDB71B
:102D6000DEB78091A4018F5F8093A4018091AF01B1
:102D7000813079F48091A6019091A70101969093FA
:102D8000A7018093A6018091A8018F5F8093A8017D
:102D90001BC08091B0018130B9F48091AB018130CA
:102DA00031F48091A8018F5F8093A8010DC08091BC
:102DB000AC01813049F48091AD019091AE01019652
:102DC0009093AE018093AD01CF91DF910895991B4F
:102DD00079E004C0991F961708F0961B881F7A9512
:102DE000C9F78095089597FB092E05260ED057FD4B
:102DF00004D014D00AD0001C38F45095409530957A
:102E000021953F4F4F4F5F4F0895F6F7909580956E
:102E1000709561957F4F8F4F9F4F0895A1E21A2EB5
:102E2000AA1BBB1BFD010DC0AA1FBB1FEE1FFF1F6E
:102E3000A217B307E407F50720F0A21BB30BE40BBE
:102E4000F50B661F771F881F991F1A9469F7609505
:102E50007095809590959B01AC01BD01CF010895BF
:102E60002F923F924F925F926F927F928F929F929A
:102E7000AF92BF92CF92DF92EF92FF920F931F9388
:102E8000CF93DF93CDB7DEB7CA1BDB0B0FB6F89439
:102E9000DEBF0FBECDBF09942A88398848885F8479
:102EA0006E847D848C849B84AA84B984C884DF80EA
:102EB000EE80FD800C811B81AA81B981CE0FD11DCE
:102EC0000FB6F894DEBF0FBECDBFED010895F894A4
:022ED000FFCF32
:102ED20000000000000000000001020203030303DF
:102EE2000404040404040404050505050505050598
:102EF2000505050505050505060606060606060678
:102F0200060606060606060606060606060606065F
:102F12000606060606060606070707070707070747
:102F2200070707070707070707070707070707072F
:102F3200070707070707070707070707070707071F
:102F4200070707070707070707070707070707070F
:102F520007070707070707070808080808080808F7
:102F620008080808080808080808080808080808DF
:102F720008080808080808080808080808080808CF
:102F820008080808080808080808080808080808BF
:102F920008080808080808080808080808080808AF
:102FA200080808080808080808080808080808089F
:102FB200080808080808080808080808080808088F
:102FC200080808080808080808080808080808087F
:102FD2000808080808080808010008004000000165
:102FE20000043A003700340031003B00380035005D
:102FF2003200390036003300300018191A1B1C1D2C
:103002001E08090A0B0C0D0E3F065B4F666D7D070D
:043012007F6F0000CC
:00000001FF
